:020000040000FA
:04000000F9EF1AF00A
:1035F200056A046A000102EF3EF0000E056E000E3D
:10360200046E5EEF1BF0000E8A6E000E8C6E030ECF
:10361200036E980EE82EFED7032EFCD7020E8A6E9A
:10362200000E8C6E030E036E980EE82EFED7032E4C
:10363200FCD7040E8A6E7E0E8C6E030E036E980EFD
:10364200E82EFED7032EFCD7080E8A6E7E0E8C6EF5
:10365200030E036E980EE82EFED7032EFCD7100E33
:103662008A6E7E0E8C6E030E036E980EE82EFED7C7
:10367200032EFCD7200E8A6E7E0E8C6E030E036E16
:10368200980EE82EFED7032EFCD7400E8A6E000E4F
:103692008C6E030E036E980EE82EFED7032EFCD717
:1036A200000E8A6E000E8C6E030E036E980EE82ECC
:1036B200FED7032EFCD7044A052A0150045C0250AF
:1036C2000558D8A067EF1BF069EF1BF004EF1BF061
:1036D2001200000E056E000E046ECAEF1BF0000E03
:1036E2008A6E000E8C6E030E036E980EE82EFED7C5
:1036F200032EFCD7000E8A6E000E8C6E030E036E34
:10370200980EE82EFED7032EFCD7040E8A6E7B0E8F
:103712008C6E030E036E980EE82EFED7032EFCD796
:10372200080E8A6E7D0E8C6E030E036E980EE82EC6
:10373200FED7032EFCD7100E8A6E000E8C6E030E7F
:10374200036E980EE82EFED7032EFCD7200E8A6E4B
:103752007F0E8C6E030E036E980EE82EFED7032E9C
:10376200FCD7400E8A6E7F0E8C6E030E036E980E8F
:10377200E82EFED7032EFCD7000E8A6E000E8C6E4A
:10378200030E036E980EE82EFED7032EFCD7044AD2
:10379200052A0150045C02500558D8A0D3EF1BF053
:1037A200D5EF1BF070EF1BF01200000E056E000E3D
:1037B200046E36EF1CF0000E8A6E000E8C6E030E45
:1037C200036E980EE82EFED7032EFCD7020E8A6EE9
:1037D200790E8C6E030E036E980EE82EFED7032E22
:1037E200FCD7040E8A6E3E0E8C6E030E036E980E8C
:1037F200E82EFED7032EFCD7080E8A6E5E0E8C6E64
:10380200030E036E980EE82EFED7032EFCD7100E81
:103812008A6E6E0E8C6E030E036E980EE82EFED725
:10382200032EFCD7200E8A6E760E8C6E030E036E6C
:10383200980EE82EFED7032EFCD7400E8A6E790E24
:103842008C6E030E036E980EE82EFED7032EFCD765
:10385200000E8A6E000E8C6E030E036E980EE82E1A
:10386200FED7032EFCD7044A052A0150045C0250FD
:103872000558D8A03FEF1CF041EF1CF0DCEF1BF025
:103882001200000E056E000E046EA2EF1CF0000E78
:103892008A6E000E8C6E030E036E980EE82EFED713
:1038A200032EFCD7020E8A6EBB0E8C6E030E036EC5
:1038B200980EE82EFED7032EFCD7040E8A6E7D0EDC
:1038C2008C6E030E036E980EE82EFED7032EFCD7E5
:1038D200080E8A6E6D0E8C6E030E036E980EE82E25
:1038E200FED7032EFCD7100E8A6E6D0E8C6E030E61
:1038F200036E980EE82EFED7032EFCD7200E8A6E9A
:10390200930E8C6E030E036E980EE82EFED7032ED6
:10391200FCD7000E8A6E000E8C6E030E036E980E9C
:10392200E82EFED7032EFCD7000E8A6E000E8C6E98
:10393200030E036E980EE82EFED7032EFCD7044A20
:10394200052A0150045C02500558D8A0ABEF1CF0C8
:10395200ADEF1CF048EF1CF01200000E056E000ED9
:10396200046E0EEF1DF0000E8A6E000E8C6E030EBA
:10397200036E980EE82EFED7032EFCD7020E8A6E37
:10398200CF0E8C6E030E036E980EE82EFED7032E1A
:10399200FCD7040E8A6ED70E8C6E030E036E980E41
:1039A200E82EFED7032EFCD7080E8A6EDB0E8C6E35
:1039B200030E036E980EE82EFED7032EFCD7100ED0
:1039C2008A6EDD0E8C6E030E036E980EE82EFED705
:1039D200032EFCD7200E8A6E010E8C6E030E036E30
:1039E200980EE82EFED7032EFCD7400E8A6EDF0E0D
:1039F2008C6E030E036E980EE82EFED7032EFCD7B4
:103A0200000E8A6E000E8C6E030E036E980EE82E68
:103A1200FED7032EFCD7044A052A0150045C02504B
:103A22000558D8A017EF1DF019EF1DF0B4EF1CF0E8
:103A32001200000E056E000E046E7AEF1DF0000EED
:103A42008A6E000E8C6E030E036E980EE82EFED761
:103A5200032EFCD7020E8A6E610E8C6E030E036E6D
:103A6200980EE82EFED7032EFCD7040E8A6E6D0E3A
:103A72008C6E030E036E980EE82EFED7032EFCD733
:103A8200080E8A6E6D0E8C6E030E036E980EE82E73
:103A9200FED7032EFCD7100E8A6E6D0E8C6E030EAF
:103AA200036E980EE82EFED7032EFCD7200E8A6EE8
:103AB2006D0E8C6E030E036E980EE82EFED7032E4B
:103AC200FCD7400E8A6E0D0E8C6E030E036E980E9E
:103AD200E82EFED7032EFCD7000E8A6E000E8C6EE7
:103AE200030E036E980EE82EFED7032EFCD7044A6F
:103AF200052A0150045C02500558D8A083EF1DF03E
:103B020085EF1DF020EF1DF01200000E056E000E75
:103B1200046EE6EF1DF0000E8A6E000E8C6E030E30
:103B2200036E980EE82EFED7032EFCD7020E8A6E85
:103B3200830E8C6E030E036E980EE82EFED7032EB4
:103B4200FCD7040E8A6E6D0E8C6E030E036E980EF9
:103B5200E82EFED7032EFCD7080E8A6E6D0E8C6EF1
:103B6200030E036E980EE82EFED7032EFCD7100E1E
:103B72008A6E6D0E8C6E030E036E980EE82EFED7C3
:103B8200032EFCD7200E8A6E6D0E8C6E030E036E12
:103B9200980EE82EFED7032EFCD7400E8A6E9B0E9F
:103BA2008C6E030E036E980EE82EFED7032EFCD702
:103BB200000E8A6E000E8C6E030E036E980EE82EB7
:103BC200FED7032EFCD7044A052A0150045C02509A
:103BD2000558D8A0EFEF1DF0F1EF1DF08CEF1DF0AE
:103BE2001200000E056E000E046E52EF1EF0000E63
:103BF2008A6E000E8C6E030E036E980EE82EFED7B0
:103C0200032EFCD7000E8A6E000E8C6E030E036E1E
:103C1200980EE82EFED7032EFCD7040E8A6EFD0EF8
:103C22008C6E030E036E980EE82EFED7032EFCD781
:103C3200080E8A6EFD0E8C6E030E036E980EE82E31
:103C4200FED7032EFCD7100E8A6E1D0E8C6E030E4D
:103C5200036E980EE82EFED7032EFCD7200E8A6E36
:103C6200ED0E8C6E030E036E980EE82EFED7032E19
:103C7200FCD7400E8A6EF10E8C6E030E036E980E08
:103C8200E82EFED7032EFCD7000E8A6E000E8C6E35
:103C9200030E036E980EE82EFED7032EFCD7044ABD
:103CA200052A0150045C02500558D8A05BEF1EF0B3
:103CB2005DEF1EF0F8EF1DF01200000E056E000E13
:103CC200046EBEEF1EF0000E8A6E000E8C6E030EA6
:103CD200036E980EE82EFED7032EFCD7020E8A6ED4
:103CE200830E8C6E030E036E980EE82EFED7032E03
:103CF200FCD7040E8A6E6D0E8C6E030E036E980E48
:103D0200E82EFED7032EFCD7080E8A6E6D0E8C6E3F
:103D1200030E036E980EE82EFED7032EFCD7100E6C
:103D22008A6E6D0E8C6E030E036E980EE82EFED711
:103D3200032EFCD7200E8A6E6D0E8C6E030E036E60
:103D4200980EE82EFED7032EFCD7400E8A6E830E05
:103D52008C6E030E036E980EE82EFED7032EFCD750
:103D6200000E8A6E000E8C6E030E036E980EE82E05
:103D7200FED7032EFCD7044A052A0150045C0250E8
:103D82000558D8A0C7EF1EF0C9EF1EF064EF1EF071
:103D92001200000E056E000E046E2AEF1FF0000ED8
:103DA2008A6E000E8C6E030E036E980EE82EFED7FE
:103DB200032EFCD7020E8A6E730E8C6E030E036EF8
:103DC200980EE82EFED7032EFCD7040E8A6E6D0ED7
:103DD2008C6E030E036E980EE82EFED7032EFCD7D0
:103DE200080E8A6E6D0E8C6E030E036E980EE82E10
:103DF200FED7032EFCD7100E8A6E6D0E8C6E030E4C
:103E0200036E980EE82EFED7032EFCD7200E8A6E84
:103E12006D0E8C6E030E036E980EE82EFED7032EE7
:103E2200FCD7400E8A6E830E8C6E030E036E980EC4
:103E3200E82EFED7032EFCD7000E8A6E000E8C6E83
:103E4200030E036E980EE82EFED7032EFCD7044A0B
:103E5200052A0150045C02500558D8A033EF1FF028
:103E620035EF1FF0D0EF1EF01200000E056E000EAF
:103E7200046E96EF1FF0000E8A6E000E8C6E030E1B
:103E8200036E980EE82EFED7032EFCD7020E8A6E22
:103E9200030E8C6E030E036E980EE82EFED7032ED1
:103EA200FCD7040E8A6EED0E8C6E030E036E980E16
:103EB200E82EFED7032EFCD7080E8A6EEE0E8C6E0D
:103EC200030E036E980EE82EFED7032EFCD7100EBB
:103ED2008A6EEE0E8C6E030E036E980EE82EFED7DF
:103EE200032EFCD7200E8A6EED0E8C6E030E036E2F
:103EF200980EE82EFED7032EFCD7400E8A6E030ED4
:103F02008C6E030E036E980EE82EFED7032EFCD79E
:103F1200000E8A6E000E8C6E030E036E980EE82E53
:103F2200FED7032EFCD7044A052A0150045C025036
:103F32000558D8A09FEF1FF0A1EF1FF03CEF1FF034
:103F42001200000E056E000E046E02EF20F0000E4D
:103F52008A6E000E8C6E030E036E980EE82EFED74C
:103F6200032EFCD7020E8A6E010E8C6E030E036EB8
:103F7200980EE82EFED7032EFCD7040E8A6E6D0E25
:103F82008C6E030E036E980EE82EFED7032EFCD71E
:103F9200080E8A6E6D0E8C6E030E036E980EE82E5E
:103FA200FED7032EFCD7100E8A6E6D0E8C6E030E9A
:103FB200036E980EE82EFED7032EFCD7200E8A6ED3
:103FC2006D0E8C6E030E036E980EE82EFED7032E36
:103FD200FCD7400E8A6E930E8C6E030E036E980E03
:103FE200E82EFED7032EFCD7000E8A6E000E8C6ED2
:103FF200030E036E980EE82EFED7032EFCD7044A5A
:10400200052A0150045C02500558D8A00BEF20F09D
:104012000DEF20F0A8EF1FF01200000E056E000E4B
:10402200046E6EEF20F0000E8A6E000E8C6E030E90
:10403200036E980EE82EFED7032EFCD7020E8A6E70
:10404200810E8C6E030E036E980EE82EFED7032EA1
:10405200FCD7040E8A6E7E0E8C6E030E036E980ED3
:10406200E82EFED7032EFCD7080E8A6E7E0E8C6ECB
:10407200030E036E980EE82EFED7032EFCD7100E09
:104082008A6E7E0E8C6E030E036E980EE82EFED79D
:10409200032EFCD7200E8A6E7E0E8C6E030E036EEC
:1040A200980EE82EFED7032EFCD7400E8A6EBD0E68
:1040B2008C6E030E036E980EE82EFED7032EFCD7ED
:1040C200000E8A6E000E8C6E030E036E980EE82EA2
:1040D200FED7032EFCD7044A052A0150045C025085
:1040E2000558D8A077EF20F079EF20F014EF20F0F8
:1040F2001200000E056E000E046EDAEF20F0000EC4
:104102008A6E000E8C6E030E036E980EE82EFED79A
:10411200032EFCD7020E8A6E000E8C6E030E036E07
:10412200980EE82EFED7032EFCD7040E8A6E7E0E62
:104132008C6E030E036E980EE82EFED7032EFCD76C
:10414200080E8A6E7E0E8C6E030E036E980EE82E9B
:10415200FED7032EFCD7100E8A6E7E0E8C6E030ED7
:10416200036E980EE82EFED7032EFCD7200E8A6E21
:104172007E0E8C6E030E036E980EE82EFED7032E73
:10418200FCD7400E8A6E810E8C6E030E036E980E63
:10419200E82EFED7032EFCD7000E8A6E000E8C6E20
:1041A200030E036E980EE82EFED7032EFCD7044AA8
:1041B200052A0150045C02500558D8A0E3EF20F014
:1041C200E5EF20F080EF20F01200000E056E000EE9
:1041D200046E46EF21F0000E8A6E000E8C6E030E06
:1041E200036E980EE82EFED7032EFCD7020E8A6EBF
:1041F200010E8C6E030E036E980EE82EFED7032E70
:10420200FCD7040E8A6E6D0E8C6E030E036E980E32
:10421200E82EFED7032EFCD7080E8A6E6D0E8C6E2A
:10422200030E036E980EE82EFED7032EFCD7100E57
:104232008A6E6D0E8C6E030E036E980EE82EFED7FC
:10424200032EFCD7200E8A6E7D0E8C6E030E036E3B
:10425200980EE82EFED7032EFCD7000E8A6E000EB3
:104262008C6E030E036E980EE82EFED7032EFCD73B
:10427200000E8A6E000E8C6E030E036E980EE82EF0
:10428200FED7032EFCD7044A052A0150045C0250D3
:104292000558D8A04FEF21F051EF21F0ECEF20F0BC
:1042A2001200000E056E000E046EB2EF21F0000E39
:1042B2008A6E000E8C6E030E036E980EE82EFED7E9
:1042C200032EFCD7020E8A6E000E8C6E030E036E56
:1042D200980EE82EFED7032EFCD7040E8A6EF60E39
:1042E2008C6E030E036E980EE82EFED7032EFCD7BB
:1042F200080E8A6EF60E8C6E030E036E980EE82E72
:10430200FED7032EFCD7100E8A6EF60E8C6E030EAD
:10431200036E980EE82EFED7032EFCD7200E8A6E6F
:10432200F60E8C6E030E036E980EE82EFED7032E49
:10433200FCD7400E8A6EFE0E8C6E030E036E980E34
:10434200E82EFED7032EFCD7000E8A6E000E8C6E6E
:10435200030E036E980EE82EFED7032EFCD7044AF6
:10436200052A0150045C02500558D8A0BBEF21F089
:10437200BDEF21F058EF21F01200000E056E000E85
:10438200046E1EEF22F0000E8A6E000E8C6E030E7B
:10439200036E980EE82EFED7032EFCD7020E8A6E0D
:1043A200000E8C6E030E036E980EE82EFED7032EBF
:1043B200FCD7040E8A6E7E0E8C6E030E036E980E70
:1043C200E82EFED7032EFCD7080E8A6E7E0E8C6E68
:1043D200030E036E980EE82EFED7032EFCD7100EA6
:1043E2008A6E6E0E8C6E030E036E980EE82EFED74A
:1043F200032EFCD7200E8A6E6E0E8C6E030E036E99
:10440200980EE82EFED7032EFCD7400E8A6E0E0EB3
:104412008C6E030E036E980EE82EFED7032EFCD789
:10442200000E8A6E000E8C6E030E036E980EE82E3E
:10443200FED7032EFCD7044A052A0150045C025021
:104442000558D8A027EF22F029EF22F0C4EF21F07F
:104452001200000E056E000E046E8AEF22F0000EAE
:104462008A6E000E8C6E030E036E980EE82EFED737
:10447200032EFCD7020E8A6E010E8C6E030E036EA3
:10448200980EE82EFED7032EFCD7040E8A6EEF0E8E
:104492008C6E030E036E980EE82EFED7032EFCD709
:1044A200080E8A6EEF0E8C6E030E036E980EE82EC7
:1044B200FED7032EFCD7100E8A6EEF0E8C6E030E03
:1044C200036E980EE82EFED7032EFCD7200E8A6EBE
:1044D200EF0E8C6E030E036E980EE82EFED7032E9F
:1044E200FCD7400E8A6E010E8C6E030E036E980E80
:1044F200E82EFED7032EFCD7000E8A6E000E8C6EBD
:10450200030E036E980EE82EFED7032EFCD7044A44
:10451200052A0150045C02500558D8A093EF22F0FE
:1045220095EF22F030EF22F01200000E056E000E21
:10453200046EF6EF22F0000E8A6E000E8C6E030EF1
:10454200036E980EE82EFED7032EFCD7020E8A6E5B
:104552007E0E8C6E030E036E980EE82EFED7032E8F
:10456200FCD7040E8A6E7E0E8C6E030E036E980EBE
:10457200E82EFED7032EFCD7080E8A6E000E8C6E34
:10458200030E036E980EE82EFED7032EFCD7100EF4
:104592008A6E000E8C6E030E036E980EE82EFED706
:1045A200032EFCD7200E8A6E7E0E8C6E030E036ED7
:1045B200980EE82EFED7032EFCD7400E8A6E7E0E92
:1045C2008C6E030E036E980EE82EFED7032EFCD7D8
:1045D200000E8A6E000E8C6E030E036E980EE82E8D
:1045E200FED7032EFCD7044A052A0150045C025070
:1045F2000558D8A0FFEF22F001EF23F09CEF22F044
:104602001200000E056E000E046E62EF23F0000E23
:104612008A6E000E8C6E030E036E980EE82EFED785
:10462200032EFCD7020E8A6EBF0E8C6E030E036E33
:10463200980EE82EFED7032EFCD7040E8A6E7E0E4D
:104642008C6E030E036E980EE82EFED7032EFCD757
:10465200080E8A6E7E0E8C6E030E036E980EE82E86
:10466200FED7032EFCD7100E8A6E800E8C6E030EC0
:10467200036E980EE82EFED7032EFCD7200E8A6E0C
:10468200FE0E8C6E030E036E980EE82EFED7032EDE
:10469200FCD7400E8A6EFE0E8C6E030E036E980ED1
:1046A200E82EFED7032EFCD7000E8A6E000E8C6E0B
:1046B200030E036E980EE82EFED7032EFCD7044A93
:1046C200052A0150045C02500558D8A06BEF23F074
:1046D2006DEF23F008EF23F01200000E056E000EBE
:1046E200046ECEEF23F0000E8A6E000E8C6E030E67
:1046F200036E980EE82EFED7032EFCD7020E8A6EAA
:10470200010E8C6E030E036E980EE82EFED7032E5A
:10471200FCD7040E8A6EEF0E8C6E030E036E980E9B
:10472200E82EFED7032EFCD7080E8A6ED70E8C6EAB
:10473200030E036E980EE82EFED7032EFCD7100E42
:104742008A6EBB0E8C6E030E036E980EE82EFED799
:10475200032EFCD7200E8A6E7D0E8C6E030E036E26
:10476200980EE82EFED7032EFCD7000E8A6E000E9E
:104772008C6E030E036E980EE82EFED7032EFCD726
:10478200000E8A6E000E8C6E030E036E980EE82EDB
:10479200FED7032EFCD7044A052A0150045C0250BE
:1047A2000558D8A0D7EF23F0D9EF23F074EF23F008
:1047B2001200000E056E000E046E3AEF24F0000E99
:1047C2008A6E000E8C6E030E036E980EE82EFED7D4
:1047D200032EFCD7020E8A6E010E8C6E030E036E40
:1047E200980EE82EFED7032EFCD7040E8A6E7F0E9B
:1047F2008C6E030E036E980EE82EFED7032EFCD7A6
:10480200080E8A6E7F0E8C6E030E036E980EE82ED3
:10481200FED7032EFCD7100E8A6E7F0E8C6E030E0F
:10482200036E980EE82EFED7032EFCD7200E8A6E5A
:104832007F0E8C6E030E036E980EE82EFED7032EAB
:10484200FCD7000E8A6E000E8C6E030E036E980E5D
:10485200E82EFED7032EFCD7000E8A6E000E8C6E59
:10486200030E036E980EE82EFED7032EFCD7044AE1
:10487200052A0150045C02500558D8A043EF24F0E9
:1048820045EF24F0E0EF23F01200000E056E000E5B
:10489200046EA6EF24F0000E8A6E000E8C6E030EDC
:1048A200036E980EE82EFED7032EFCD7020E8A6EF8
:1048B200010E8C6E030E036E980EE82EFED7032EA9
:1048C200FCD7040E8A6EFB0E8C6E030E036E980EDE
:1048D200E82EFED7032EFCD7080E8A6EF70E8C6EDA
:1048E200030E036E980EE82EFED7032EFCD7100E91
:1048F2008A6EEF0E8C6E030E036E980EE82EFED7B4
:10490200032EFCD7200E8A6EF70E8C6E030E036EFA
:10491200980EE82EFED7032EFCD7400E8A6EFB0EB1
:104922008C6E030E036E980EE82EFED7032EFCD774
:10493200800E8A6E010E8C6E030E036E980EE82EA8
:10494200FED7032EFCD7044A052A0150045C02500C
:104952000558D8A0AFEF24F0B1EF24F04CEF24F0CB
:104962001200000E056E000E046E12EF25F0000E0E
:104972008A6E000E8C6E030E036E980EE82EFED722
:10498200032EFCD7020E8A6E010E8C6E030E036E8E
:10499200980EE82EFED7032EFCD7040E8A6EFB0E6D
:1049A2008C6E030E036E980EE82EFED7032EFCD7F4
:1049B200080E8A6EF70E8C6E030E036E980EE82EAA
:1049C200FED7032EFCD7100E8A6EEF0E8C6E030EEE
:1049D200036E980EE82EFED7032EFCD7200E8A6EA9
:1049E200DF0E8C6E030E036E980EE82EFED7032E9A
:1049F200FCD7400E8A6EBF0E8C6E030E036E980EAD
:104A0200E82EFED7032EFCD7800E8A6E010E8C6E26
:104A1200030E036E980EE82EFED7032EFCD7044A2F
:104A2200052A0150045C02500558D8A01BEF25F05E
:104A32001DEF25F0B8EF24F01200000E056E000EF7
:104A4200046E7EEF25F0000E8A6E000E8C6E030E51
:104A5200036E980EE82EFED7032EFCD7020E8A6E46
:104A6200810E8C6E030E036E980EE82EFED7032E77
:104A7200FCD7040E8A6E7E0E8C6E030E036E980EA9
:104A8200E82EFED7032EFCD7080E8A6E7E0E8C6EA1
:104A9200030E036E980EE82EFED7032EFCD7100EDF
:104AA2008A6E7E0E8C6E030E036E980EE82EFED773
:104AB200032EFCD7200E8A6E7E0E8C6E030E036EC2
:104AC200980EE82EFED7032EFCD7400E8A6E810E7A
:104AD2008C6E030E036E980EE82EFED7032EFCD7C3
:104AE200000E8A6E000E8C6E030E036E980EE82E78
:104AF200FED7032EFCD7044A052A0150045C02505B
:104B02000558D8A087EF25F089EF25F024EF25F08E
:104B12001200000E056E000E046EEAEF25F0000E84
:104B22008A6E000E8C6E030E036E980EE82EFED770
:104B3200032EFCD7020E8A6E010E8C6E030E036EDC
:104B4200980EE82EFED7032EFCD7040E8A6EEE0EC8
:104B52008C6E030E036E980EE82EFED7032EFCD742
:104B6200080E8A6EEE0E8C6E030E036E980EE82E01
:104B7200FED7032EFCD7100E8A6EEE0E8C6E030E3D
:104B8200036E980EE82EFED7032EFCD7200E8A6EF7
:104B9200EE0E8C6E030E036E980EE82EFED7032ED9
:104BA200FCD7400E8A6EF10E8C6E030E036E980EC9
:104BB200E82EFED7032EFCD7000E8A6E000E8C6EF6
:104BC200030E036E980EE82EFED7032EFCD7044A7E
:104BD200052A0150045C02500558D8A0F3EF25F0D5
:104BE200F5EF25F090EF25F01200000E056E000E95
:104BF200046E56EF26F0000E8A6E000E8C6E030EC7
:104C0200036E980EE82EFED7032EFCD7020E8A6E94
:104C1200830E8C6E030E036E980EE82EFED7032EC3
:104C2200FCD7040E8A6E7D0E8C6E030E036E980EF8
:104C3200E82EFED7032EFCD7080E8A6E7D0E8C6EF0
:104C4200030E036E980EE82EFED7032EFCD7100E2D
:104C52008A6E5D0E8C6E030E036E980EE82EFED7E2
:104C6200032EFCD7200E8A6EBD0E8C6E030E036ED1
:104C7200980EE82EFED7032EFCD7400E8A6E430E06
:104C82008C6E030E036E980EE82EFED7032EFCD711
:104C9200000E8A6E000E8C6E030E036E980EE82EC6
:104CA200FED7032EFCD7044A052A0150045C0250A9
:104CB2000558D8A05FEF26F061EF26F0FCEF25F053
:104CC2001200000E056E000E046EC2EF26F0000EFA
:104CD2008A6E000E8C6E030E036E980EE82EFED7BF
:104CE200032EFCD7020E8A6E010E8C6E030E036E2B
:104CF200980EE82EFED7032EFCD7040E8A6EEE0E17
:104D02008C6E030E036E980EE82EFED7032EFCD790
:104D1200080E8A6EEE0E8C6E030E036E980EE82E4F
:104D2200FED7032EFCD7100E8A6ECE0E8C6E030EAB
:104D3200036E980EE82EFED7032EFCD7200E8A6E45
:104D4200AE0E8C6E030E036E980EE82EFED7032E67
:104D5200FCD7400E8A6E710E8C6E030E036E980E97
:104D6200E82EFED7032EFCD7000E8A6E000E8C6E44
:104D7200030E036E980EE82EFED7032EFCD7044ACC
:104D8200052A0150045C02500558D8A0CBEF26F04A
:104D9200CDEF26F068EF26F01200000E056E000E31
:104DA200046E2EEF27F0000E8A6E000E8C6E030E3C
:104DB200036E980EE82EFED7032EFCD7020E8A6EE3
:104DC200730E8C6E030E036E980EE82EFED7032E22
:104DD200FCD7040E8A6E6D0E8C6E030E036E980E57
:104DE200E82EFED7032EFCD7080E8A6E6D0E8C6E4F
:104DF200030E036E980EE82EFED7032EFCD7100E7C
:104E02008A6E6D0E8C6E030E036E980EE82EFED720
:104E1200032EFCD7200E8A6E9D0E8C6E030E036E3F
:104E2200980EE82EFED7032EFCD7000E8A6E000ED7
:104E32008C6E030E036E980EE82EFED7032EFCD75F
:104E4200000E8A6E000E8C6E030E036E980EE82E14
:104E5200FED7032EFCD7044A052A0150045C0250F7
:104E62000558D8A037EF27F039EF27F0D4EF26F016
:104E72001200000E056E000E046E9AEF27F0010E6E
:104E82008A6EFD0E8C6E030E036E980EE82EFED710
:104E9200032EFCD7020E8A6EFD0E8C6E030E036E7D
:104EA200980EE82EFED7032EFCD7040E8A6EFD0E56
:104EB2008C6E030E036E980EE82EFED7032EFCD7DF
:104EC200080E8A6E010E8C6E030E036E980EE82E8B
:104ED200FED7032EFCD7100E8A6EFD0E8C6E030ECB
:104EE200036E980EE82EFED7032EFCD7200E8A6E94
:104EF200FD0E8C6E030E036E980EE82EFED7032E67
:104F0200FCD7400E8A6EFD0E8C6E030E036E980E59
:104F1200E82EFED7032EFCD7000E8A6E000E8C6E92
:104F2200030E036E980EE82EFED7032EFCD7044A1A
:104F3200052A0150045C02500558D8A0A3EF27F0BF
:104F4200A5EF27F040EF27F01200000E056E000ECD
:104F5200046E06EF28F0000E8A6E000E8C6E030EB1
:104F6200036E980EE82EFED7032EFCD7020E8A6E31
:104F7200810E8C6E030E036E980EE82EFED7032E62
:104F8200FCD7040E8A6E7F0E8C6E030E036E980E93
:104F9200E82EFED7032EFCD7080E8A6E7F0E8C6E8B
:104FA200030E036E980EE82EFED7032EFCD7100ECA
:104FB2008A6E7F0E8C6E030E036E980EE82EFED75D
:104FC200032EFCD7200E8A6E7F0E8C6E030E036EAC
:104FD200980EE82EFED7032EFCD7400E8A6E810E65
:104FE2008C6E030E036E980EE82EFED7032EFCD7AE
:104FF200000E8A6E000E8C6E030E036E980EE82E63
:10500200FED7032EFCD7044A052A0150045C025045
:105012000558D8A00FEF28F011EF28F0ACEF27F0D9
:105022001200000E056E000E046E72EF28F0000EE4
:105032008A6E000E8C6E030E036E980EE82EFED75B
:10504200032EFCD7020E8A6EC10E8C6E030E036E07
:10505200980EE82EFED7032EFCD7040E8A6EBF0EE2
:105062008C6E030E036E980EE82EFED7032EFCD72D
:10507200080E8A6E7F0E8C6E030E036E980EE82E5B
:10508200FED7032EFCD7100E8A6E7F0E8C6E030E97
:10509200036E980EE82EFED7032EFCD7200E8A6EE2
:1050A200BF0E8C6E030E036E980EE82EFED7032EF3
:1050B200FCD7400E8A6EC10E8C6E030E036E980EE4
:1050C200E82EFED7032EFCD7000E8A6E000E8C6EE1
:1050D200030E036E980EE82EFED7032EFCD7044A69
:1050E200052A0150045C02500558D8A07BEF28F035
:1050F2007DEF28F018EF28F01200000E056E000E6A
:10510200046EDEEF28F0010E8A6EC10E8C6E030E65
:10511200036E980EE82EFED7032EFCD7020E8A6E7F
:10512200BF0E8C6E030E036E980EE82EFED7032E72
:10513200FCD7040E8A6E7F0E8C6E030E036E980EE1
:10514200E82EFED7032EFCD7080E8A6E8F0E8C6EC9
:10515200030E036E980EE82EFED7032EFCD7100E18
:105162008A6E7F0E8C6E030E036E980EE82EFED7AB
:10517200032EFCD7200E8A6EBF0E8C6E030E036EBA
:10518200980EE82EFED7032EFCD7400E8A6EC10E73
:105192008C6E030E036E980EE82EFED7032EFCD7FC
:1051A200000E8A6E000E8C6E030E036E980EE82EB1
:1051B200FED7032EFCD7044A052A0150045C025094
:1051C2000558D8A0E7EF28F0E9EF28F084EF28F09F
:1051D2001200000E056E000E046E4AEF29F0000E5A
:1051E2008A6E000E8C6E030E036E980EE82EFED7AA
:1051F200032EFCD7020E8A6E390E8C6E030E036EDE
:10520200980EE82EFED7032EFCD7040E8A6ED70E18
:105212008C6E030E036E980EE82EFED7032EFCD77B
:10522200080E8A6EEF0E8C6E030E036E980EE82E39
:10523200FED7032EFCD7100E8A6ED70E8C6E030E8D
:10524200036E980EE82EFED7032EFCD7200E8A6E30
:10525200390E8C6E030E036E980EE82EFED7032EC7
:10526200FCD7000E8A6E000E8C6E030E036E980E33
:10527200E82EFED7032EFCD7000E8A6E000E8C6E2F
:10528200030E036E980EE82EFED7032EFCD7044AB7
:10529200052A0150045C02500558D8A053EF29F0AA
:1052A20055EF29F0F0EF28F01200000E056E000E07
:1052B200046EB6EF29F0000E8A6E000E8C6E030E9D
:1052C200036E980EE82EFED7032EFCD7020E8A6ECE
:1052D200F10E8C6E030E036E980EE82EFED7032E8F
:1052E200FCD7040E8A6EEF0E8C6E030E036E980EC0
:1052F200E82EFED7032EFCD7080E8A6E0F0E8C6E98
:10530200030E036E980EE82EFED7032EFCD7100E66
:105312008A6EEF0E8C6E030E036E980EE82EFED789
:10532200032EFCD7200E8A6EF10E8C6E030E036ED6
:10533200980EE82EFED7032EFCD7000E8A6E000EC2
:105342008C6E030E036E980EE82EFED7032EFCD74A
:10535200000E8A6E000E8C6E030E036E980EE82EFF
:10536200FED7032EFCD7044A052A0150045C0250E2
:105372000558D8A0BFEF29F0C1EF29F05CEF29F062
:105382001200000E056E000E046E22EF2AF0000ECF
:105392008A6E000E8C6E030E036E980EE82EFED7F8
:1053A200032EFCD7020E8A6E3D0E8C6E030E036E28
:1053B200980EE82EFED7032EFCD7040E8A6E5D0EE1
:1053C2008C6E030E036E980EE82EFED7032EFCD7CA
:1053D200080E8A6E6D0E8C6E030E036E980EE82E0A
:1053E200FED7032EFCD7100E8A6E750E8C6E030E3E
:1053F200036E980EE82EFED7032EFCD7200E8A6E7F
:10540200790E8C6E030E036E980EE82EFED7032ED5
:10541200FCD7000E8A6E000E8C6E030E036E980E81
:10542200E82EFED7032EFCD7000E8A6E000E8C6E7D
:10543200030E036E980EE82EFED7032EFCD7044A05
:10544200052A0150045C02500558D8A02BEF2AF01F
:105452002DEF2AF0C8EF29F01200000E056E000EA3
:10546200046E8EEF2AF0000E8A6E000E8C6E030E12
:10547200036E980EE82EFED7032EFCD7020E8A6E1C
:105482009B0E8C6E030E036E980EE82EFED7032E33
:10549200FCD7040E8A6E6D0E8C6E030E036E980E90
:1054A200E82EFED7032EFCD7080E8A6E6D0E8C6E88
:1054B200030E036E980EE82EFED7032EFCD7100EB5
:1054C2008A6E6D0E8C6E030E036E980EE82EFED75A
:1054D200032EFCD7200E8A6E6D0E8C6E030E036EA9
:1054E200980EE82EFED7032EFCD7400E8A6E830E4E
:1054F2008C6E030E036E980EE82EFED7032EFCD799
:10550200000E8A6E000E8C6E030E036E980EE82E4D
:10551200FED7032EFCD7044A052A0150045C025030
:105522000558D8A097EF2AF099EF2AF034EF2AF025
:105532001200000E056E000E046EFAEF2AF0010E44
:105542008A6EEF0E8C6E030E036E980EE82EFED757
:10555200032EFCD7020E8A6ECF0E8C6E030E036EE4
:10556200980EE82EFED7032EFCD7040E8A6E8F0EFD
:105572008C6E030E036E980EE82EFED7032EFCD718
:10558200080E8A6E000E8C6E030E036E980EE82EC5
:10559200FED7032EFCD7100E8A6E000E8C6E030E01
:1055A200036E980EE82EFED7032EFCD7200E8A6ECD
:1055B2008F0E8C6E030E036E980EE82EFED7032E0E
:1055C200FCD7400E8A6ECF0E8C6E030E036E980EC1
:1055D200E82EFED7032EFCD7800E8A6EEF0E8C6E5D
:1055E200030E036E980EE82EFED7032EFCD7044A54
:1055F200052A0150045C02500558D8A003EF2BF095
:1056020005EF2BF0A0EF2AF01200000E056E000E3F
:10561200046E66EF2BF0010E8A6EE70E8C6E030E9F
:10562200036E980EE82EFED7032EFCD7020E8A6E6A
:10563200C30E8C6E030E036E980EE82EFED7032E59
:10564200FCD7040E8A6E810E8C6E030E036E980ECA
:10565200E82EFED7032EFCD7080E8A6E000E8C6E43
:10566200030E036E980EE82EFED7032EFCD7100E03
:105672008A6EE70E8C6E030E036E980EE82EFED72E
:10568200032EFCD7200E8A6EE70E8C6E030E036E7D
:10569200980EE82EFED7032EFCD7400E8A6EE70E38
:1056A2008C6E030E036E980EE82EFED7032EFCD7E7
:1056B200800E8A6EE70E8C6E030E036E980EE82E35
:1056C200FED7032EFCD7044A052A0150045C02507F
:1056D2000558D8A06FEF2BF071EF2BF00CEF2BF0E9
:1056E2001200000E056E000E046ED2EF2BF0010EBA
:1056F2008A6EE70E8C6E030E036E980EE82EFED7AE
:10570200032EFCD7020E8A6EE70E8C6E030E036E1A
:10571200980EE82EFED7032EFCD7040E8A6EE70EF3
:105722008C6E030E036E980EE82EFED7032EFCD766
:10573200080E8A6EE70E8C6E030E036E980EE82E2C
:10574200FED7032EFCD7100E8A6E000E8C6E030E4F
:10575200036E980EE82EFED7032EFCD7200E8A6E1B
:10576200810E8C6E030E036E980EE82EFED7032E6A
:10577200FCD7400E8A6EC30E8C6E030E036E980E1B
:10578200E82EFED7032EFCD7800E8A6EE70E8C6EB3
:10579200030E036E980EE82EFED7032EFCD7044AA2
:1057A200052A0150045C02500558D8A0DBEF2BF00B
:1057B200DDEF2BF078EF2BF01200000E056E000EDD
:1057C200046E3EEF2CF0010E8A6EF70E8C6E030E05
:1057D200036E980EE82EFED7032EFCD7020E8A6EB9
:1057E200F30E8C6E030E036E980EE82EFED7032E78
:1057F200FCD7040E8A6EF10E8C6E030E036E980EA9
:10580200E82EFED7032EFCD7080E8A6E000E8C6E91
:10581200030E036E980EE82EFED7032EFCD7100E51
:105822008A6E000E8C6E030E036E980EE82EFED763
:10583200032EFCD7200E8A6EF10E8C6E030E036EC1
:10584200980EE82EFED7032EFCD7400E8A6EF30E7A
:105852008C6E030E036E980EE82EFED7032EFCD735
:10586200800E8A6EF70E8C6E030E036E980EE82E73
:10587200FED7032EFCD7044A052A0150045C0250CD
:105882000558D8A047EF2CF049EF2CF0E4EF2BF0AD
:105892001200000E056E000E046EAAEF2CF0000E30
:1058A2008A6E000E8C6E030E036E980EE82EFED7E3
:1058B200032EFCD7020E8A6E810E8C6E030E036ECF
:1058C200980EE82EFED7032EFCD7040E8A6E6F0EBA
:1058D2008C6E030E036E980EE82EFED7032EFCD7B5
:1058E200080E8A6E6F0E8C6E030E036E980EE82EF3
:1058F200FED7032EFCD7100E8A6E6F0E8C6E030E2F
:10590200036E980EE82EFED7032EFCD7200E8A6E69
:105912006F0E8C6E030E036E980EE82EFED7032ECA
:10592200FCD7400E8A6E9F0E8C6E030E036E980E8D
:10593200E82EFED7032EFCD7000E8A6E000E8C6E68
:10594200030E036E980EE82EFED7032EFCD7044AF0
:10595200052A0150045C02500558D8A0B3EF2CF080
:10596200B5EF2CF050EF2CF01200000E056E000E79
:10597200046E16EF2DF0000E8A6E000E8C6E030E72
:10598200036E980EE82EFED7032EFCD7020E8A6E07
:10599200870E8C6E030E036E980EE82EFED7032E32
:1059A200FCD7040E8A6E7B0E8C6E030E036E980E6D
:1059B200E82EFED7032EFCD7080E8A6E7B0E8C6E65
:1059C200030E036E980EE82EFED7032EFCD7100EA0
:1059D2008A6E7B0E8C6E030E036E980EE82EFED737
:1059E200032EFCD7200E8A6E7B0E8C6E030E036E86
:1059F200980EE82EFED7032EFCD7400E8A6E7B0E41
:105A02008C6E030E036E980EE82EFED7032EFCD783
:105A1200000E8A6E000E8C6E030E036E980EE82E38
:105A2200FED7032EFCD7044A052A0150045C02501B
:105A32000558D8A01FEF2DF021EF2DF0BCEF2CF070
:105A42001200000E056E000E046E82EF2DF0000EA5
:105A52008A6E000E8C6E030E036E980EE82EFED731
:105A6200032EFCD7020E8A6E9F0E8C6E030E036EFF
:105A7200980EE82EFED7032EFCD7040E8A6E6F0E08
:105A82008C6E030E036E980EE82EFED7032EFCD703
:105A9200080E8A6E6F0E8C6E030E036E980EE82E41
:105AA200FED7032EFCD7100E8A6E6F0E8C6E030E7D
:105AB200036E980EE82EFED7032EFCD7200E8A6EB8
:105AC2006F0E8C6E030E036E980EE82EFED7032E19
:105AD200FCD7400E8A6E810E8C6E030E036E980EFA
:105AE200E82EFED7032EFCD7000E8A6E000E8C6EB7
:105AF200030E036E980EE82EFED7032EFCD7044A3F
:105B0200052A0150045C02500558D8A08BEF2DF0F5
:105B12008DEF2DF028EF2DF01200000E056E000E15
:105B2200046EEEEF2DF0000E8A6E000E8C6E030EE8
:105B3200036E980EE82EFED7032EFCD7020E8A6E55
:105B4200870E8C6E030E036E980EE82EFED7032E80
:105B5200FCD7040E8A6E7B0E8C6E030E036E980EBB
:105B6200E82EFED7032EFCD7080E8A6E5B0E8C6ED3
:105B7200030E036E980EE82EFED7032EFCD7100EEE
:105B82008A6E5B0E8C6E030E036E980EE82EFED7A5
:105B9200032EFCD7200E8A6E5B0E8C6E030E036EF4
:105BA200980EE82EFED7032EFCD7400E8A6E670EA3
:105BB2008C6E030E036E980EE82EFED7032EFCD7D2
:105BC200000E8A6E000E8C6E030E036E980EE82E87
:105BD200FED7032EFCD7044A052A0150045C02506A
:105BE2000558D8A0F7EF2DF0F9EF2DF094EF2DF036
:105BF2001200000E056E000E046E5AEF2EF0000E1B
:105C02008A6E000E8C6E030E036E980EE82EFED77F
:105C1200032EFCD7000E8A6E000E8C6E030E036EEE
:105C2200980EE82EFED7032EFCD7000E8A6E000EC9
:105C32008C6E030E036E980EE82EFED7032EFCD751
:105C4200080E8A6E200E8C6E030E036E980EE82EDE
:105C5200FED7032EFCD7100E8A6E200E8C6E030E1A
:105C6200036E980EE82EFED7032EFCD7000E8A6E26
:105C7200000E8C6E030E036E980EE82EFED7032ED6
:105C8200FCD7000E8A6E000E8C6E030E036E980E09
:105C9200E82EFED7032EFCD7000E8A6E000E8C6E05
:105CA200030E036E980EE82EFED7032EFCD7044A8D
:105CB200052A0150045C02500558D8A063EF2EF06B
:105CC20065EF2EF000EF2EF01200000E056E000EB2
:105CD200046EC6EF2EF0000E8A6E000E8C6E030E5E
:105CE200036E980EE82EFED7032EFCD7000E8A6EA6
:105CF200000E8C6E030E036E980EE82EFED7032E56
:105D0200FCD7000E8A6E000E8C6E030E036E980E88
:105D1200E82EFED7032EFCD7080E8A6E040E8C6E78
:105D2200030E036E980EE82EFED7032EFCD7100E3C
:105D32008A6E040E8C6E030E036E980EE82EFED74A
:105D4200032EFCD7000E8A6E000E8C6E030E036EBD
:105D5200980EE82EFED7032EFCD7000E8A6E000E98
:105D62008C6E030E036E980EE82EFED7032EFCD720
:105D7200000E8A6E000E8C6E030E036E980EE82ED5
:105D8200FED7032EFCD7044A052A0150045C0250B8
:105D92000558D8A0CFEF2EF0D1EF2EF06CEF2EF0F9
:105DA2001200000E056E000E046E32EF2FF0000E90
:105DB2008A6E000E8C6E030E036E980EE82EFED7CE
:105DC200032EFCD7020E8A6E030E8C6E030E036E38
:105DD200980EE82EFED7032EFCD7040E8A6EF60E1E
:105DE2008C6E030E036E980EE82EFED7032EFCD7A0
:105DF200080E8A6EEE0E8C6E030E036E980EE82E5F
:105E0200FED7032EFCD7100E8A6EDE0E8C6E030EAA
:105E1200036E980EE82EFED7032EFCD7200E8A6E54
:105E2200BE0E8C6E030E036E980EE82EFED7032E66
:105E3200FCD7400E8A6E030E8C6E030E036E980E14
:105E4200E82EFED7032EFCD7000E8A6E000E8C6E53
:105E5200030E036E980EE82EFED7032EFCD7044ADB
:105E6200052A0150045C02500558D8A03BEF2FF0E0
:105E72003DEF2FF0D8EF2EF01200000E056E000E4F
:105E8200046E9EEF2FF0000E8A6E000E8C6E030ED3
:105E9200036E980EE82EFED7032EFCD7020E8A6EF2
:105EA200070E8C6E030E036E980EE82EFED7032E9D
:105EB200FCD7040E8A6EED0E8C6E030E036E980EE6
:105EC200E82EFED7032EFCD7080E8A6EED0E8C6EDE
:105ED200030E036E980EE82EFED7032EFCD7100E8B
:105EE2008A6EED0E8C6E030E036E980EE82EFED7B0
:105EF200032EFCD7200E8A6E1F0E8C6E030E036ECD
:105F0200980EE82EFED7032EFCD7000E8A6E000EE6
:105F12008C6E030E036E980EE82EFED7032EFCD76E
:105F2200000E8A6E000E8C6E030E036E980EE82E23
:105F3200FED7032EFCD7044A052A0150045C025006
:105F42000558D8A0A7EF2FF0A9EF2FF044EF2FF0BC
:105F52001200000E056E000E046E0AEF30F0000E05
:105F62008A6E000E8C6E030E036E980EE82EFED71C
:105F7200032EFCD7020E8A6EDF0E8C6E030E036EAA
:105F8200980EE82EFED7032EFCD7040E8A6E030E5F
:105F92008C6E030E036E980EE82EFED7032EFCD7EE
:105FA200080E8A6EDD0E8C6E030E036E980EE82EBE
:105FB200FED7032EFCD7100E8A6EFD0E8C6E030EDA
:105FC200036E980EE82EFED7032EFCD7200E8A6EA3
:105FD200F30E8C6E030E036E980EE82EFED7032E80
:105FE200FCD7000E8A6E000E8C6E030E036E980EA6
:105FF200E82EFED7032EFCD7000E8A6E000E8C6EA2
:10600200030E036E980EE82EFED7032EFCD7044A29
:10601200052A0150045C02500558D8A013EF30F055
:1060220015EF30F0B0EF2FF01200000E056E000EEB
:10603200046E76EF30F0010E8A6E000E8C6E030E47
:10604200036E980EE82EFED7032EFCD7020E8A6E40
:10605200000E8C6E030E036E980EE82EFED7032EF2
:10606200FCD7040E8A6E000E8C6E030E036E980E21
:10607200E82EFED7032EFCD7080E8A6E000E8C6E19
:10608200030E036E980EE82EFED7032EFCD7100ED9
:106092008A6E000E8C6E030E036E980EE82EFED7EB
:1060A200032EFCD7200E8A6E000E8C6E030E036E3A
:1060B200980EE82EFED7032EFCD7400E8A6E000EF5
:1060C2008C6E030E036E980EE82EFED7032EFCD7BD
:1060D200800E8A6E000E8C6E030E036E980EE82EF2
:1060E200FED7032EFCD7044A052A0150045C025055
:1060F2000558D8A07FEF30F081EF30F01CEF30F080
:106102001200000E056E000E046EE2EF30F0000E7B
:106112008A6E000E8C6E030E036E980EE82EFED76A
:10612200032EFCD7020E8A6EB30E8C6E030E036E24
:10613200980EE82EFED7032EFCD7040E8A6E6D0E43
:106142008C6E030E036E980EE82EFED7032EFCD73C
:10615200080E8A6E6D0E8C6E030E036E980EE82E7C
:10616200FED7032EFCD7100E8A6E6D0E8C6E030EB8
:10617200036E980EE82EFED7032EFCD7200E8A6EF1
:106182006D0E8C6E030E036E980EE82EFED7032E54
:10619200FCD7400E8A6E830E8C6E030E036E980E31
:1061A200E82EFED7032EFCD7000E8A6E000E8C6EF0
:1061B200030E036E980EE82EFED7032EFCD7044A78
:1061C200052A0150045C02500558D8A0EBEF30F0CC
:1061D200EDEF30F088EF30F01200000E056E000E89
:1061E200046E4EEF31F0000E8A6E000E8C6E030EBE
:1061F200036E980EE82EFED7032EFCD7020E8A6E8F
:10620200010E8C6E030E036E980EE82EFED7032E3F
:10621200FCD7040E8A6EEF0E8C6E030E036E980E80
:10622200E82EFED7032EFCD7080E8A6EEF0E8C6E78
:10623200030E036E980EE82EFED7032EFCD7100E27
:106242008A6E1F0E8C6E030E036E980EE82EFED71A
:10625200032EFCD7000E8A6E000E8C6E030E036EA8
:10626200980EE82EFED7032EFCD7000E8A6E000E83
:106272008C6E030E036E980EE82EFED7032EFCD70B
:10628200000E8A6E000E8C6E030E036E980EE82EC0
:10629200FED7032EFCD7044A052A0150045C0250A3
:1062A2000558D8A057EF31F059EF31F0F4EF30F044
:1062B2001200000E056E000E046EBAEF31F0000EF1
:1062C2008A6E000E8C6E030E036E980EE82EFED7B9
:1062D200032EFCD7000E8A6E000E8C6E030E036E28
:1062E200980EE82EFED7032EFCD7000E8A6E000E03
:1062F2008C6E030E036E980EE82EFED7032EFCD78B
:10630200080E8A6E090E8C6E030E036E980EE82E2E
:10631200FED7032EFCD7100E8A6E090E8C6E030E6A
:10632200036E980EE82EFED7032EFCD7000E8A6E5F
:10633200000E8C6E030E036E980EE82EFED7032E0F
:10634200FCD7000E8A6E000E8C6E030E036E980E42
:10635200E82EFED7032EFCD7000E8A6E000E8C6E3E
:10636200030E036E980EE82EFED7032EFCD7044AC6
:10637200052A0150045C02500558D8A0C3EF31F041
:10638200C5EF31F060EF31F01200000E056E000E25
:10639200046E26EF32F0000E8A6E000E8C6E030E33
:1063A200036E980EE82EFED7032EFCD7020E8A6EDD
:1063B200BF0E8C6E030E036E980EE82EFED7032ED0
:1063C200FCD7040E8A6E7F0E8C6E030E036E980E3F
:1063D200E82EFED7032EFCD7080E8A6E8B0E8C6E2B
:1063E200030E036E980EE82EFED7032EFCD7000E86
:1063F2008A6E000E8C6E030E036E980EE82EFED788
:10640200032EFCD7000E8A6E000E8C6E030E036EF6
:10641200980EE82EFED7032EFCD7000E8A6E000ED1
:106422008C6E030E036E980EE82EFED7032EFCD759
:10643200000E8A6E000E8C6E030E036E980EE82E0E
:10644200FED7032EFCD7044A052A0150045C0250F1
:106452000558D8A02FEF32F031EF32F0CCEF31F007
:106462001200000E056E000E046E92EF32F0000E66
:106472008A6E000E8C6E030E036E980EE82EFED707
:10648200032EFCD7000E8A6E000E8C6E030E036E76
:10649200980EE82EFED7032EFCD7040E8A6E070E46
:1064A2008C6E030E036E980EE82EFED7032EFCD7D9
:1064B200080E8A6EDF0E8C6E030E036E980EE82EA7
:1064C200FED7032EFCD7100E8A6EAF0E8C6E030E13
:1064D200036E980EE82EFED7032EFCD7200E8A6E8E
:1064E200770E8C6E030E036E980EE82EFED7032EE7
:1064F200FCD7000E8A6E000E8C6E030E036E980E91
:10650200E82EFED7032EFCD7000E8A6E000E8C6E8C
:10651200030E036E980EE82EFED7032EFCD7044A14
:10652200052A0150045C02500558D8A09BEF32F0B6
:106532009DEF32F038EF32F01200000E056E000EC1
:10654200046EFEEF32F0000E8A6E000E8C6E030EA9
:10655200036E980EE82EFED7032EFCD7000E8A6E2D
:10656200000E8C6E030E036E980EE82EFED7032EDD
:10657200FCD7000E8A6E000E8C6E030E036E980E10
:10658200E82EFED7032EFCD7080E8A6E010E8C6E03
:10659200030E036E980EE82EFED7032EFCD7000ED4
:1065A2008A6E000E8C6E030E036E980EE82EFED7D6
:1065B200032EFCD7000E8A6E000E8C6E030E036E45
:1065C200980EE82EFED7032EFCD7000E8A6E000E20
:1065D2008C6E030E036E980EE82EFED7032EFCD7A8
:1065E200000E8A6E000E8C6E030E036E980EE82E5D
:1065F200FED7032EFCD7044A052A0150045C025040
:106602000558D8A007EF33F009EF33F0A4EF32F0CA
:106612001200000E056E000E046E6AEF33F0000EDB
:106622008A6E000E8C6E030E036E980EE82EFED755
:10663200032EFCD7020E8A6E070E8C6E030E036EBB
:10664200980EE82EFED7032EFCD7040E8A6EEF0EAC
:106652008C6E030E036E980EE82EFED7032EFCD727
:10666200080E8A6EEF0E8C6E030E036E980EE82EE5
:10667200FED7032EFCD7100E8A6E1F0E8C6E030EF1
:10668200036E980EE82EFED7032EFCD7200E8A6EDC
:10669200EF0E8C6E030E036E980EE82EFED7032EBD
:1066A200FCD7400E8A6EEF0E8C6E030E036E980EB0
:1066B200E82EFED7032EFCD7800E8A6E1F0E8C6E3C
:1066C200030E036E980EE82EFED7032EFCD7044A63
:1066D200052A0150045C02500558D8A073EF33F02C
:1066E20075EF33F010EF33F01200000E056E000E5E
:1066F200046ED6EF33F0010E8A6EAA0E8C6E030E74
:10670200036E980EE82EFED7032EFCD7020E8A6E79
:10671200550E8C6E030E036E980EE82EFED7032ED6
:10672200FCD7040E8A6EAA0E8C6E030E036E980EB0
:10673200E82EFED7032EFCD7080E8A6E550E8C6EFD
:10674200030E036E980EE82EFED7032EFCD7100E12
:106752008A6EAA0E8C6E030E036E980EE82EFED77A
:10676200032EFCD7200E8A6E550E8C6E030E036E1E
:10677200980EE82EFED7032EFCD7400E8A6EAA0E84
:106782008C6E030E036E980EE82EFED7032EFCD7F6
:10679200800E8A6E550E8C6E030E036E980EE82ED6
:1067A200FED7032EFCD7044A052A0150045C02508E
:1067B2000558D8A0DFEF33F0E1EF33F07CEF33F090
:1067C2001200000E056E000E046E42EF34F0000E51
:1067D2008A6E000E8C6E030E036E980EE82EFED7A4
:1067E200032EFCD7020E8A6E070E8C6E030E036E0A
:1067F200980EE82EFED7032EFCD7040E8A6EEF0EFB
:106802008C6E030E036E980EE82EFED7032EFCD775
:10681200080E8A6EEF0E8C6E030E036E980EE82E33
:10682200FED7032EFCD7100E8A6EEF0E8C6E030E6F
:10683200036E980EE82EFED7032EFCD7200E8A6E2A
:106842001F0E8C6E030E036E980EE82EFED7032EDB
:10685200FCD7000E8A6E000E8C6E030E036E980E2D
:10686200E82EFED7032EFCD7000E8A6E000E8C6E29
:10687200030E036E980EE82EFED7032EFCD7044AB1
:10688200052A0150045C02500558D8A04BEF34F0A1
:106892004DEF34F0E8EF33F01200000E056E000EFB
:1068A200046EAEEF34F0000E8A6E000E8C6E030E94
:1068B200036E980EE82EFED7032EFCD7020E8A6EC8
:1068C200B70E8C6E030E036E980EE82EFED7032EC3
:1068D200FCD7040E8A6E030E8C6E030E036E980EA6
:1068E200E82EFED7032EFCD7080E8A6EB70E8C6EEA
:1068F200030E036E980EE82EFED7032EFCD7100E61
:106902008A6EB70E8C6E030E036E980EE82EFED7BB
:10691200032EFCD7200E8A6E030E8C6E030E036EBE
:10692200980EE82EFED7032EFCD7400E8A6EB70EC5
:106932008C6E030E036E980EE82EFED7032EFCD744
:10694200000E8A6E000E8C6E030E036E980EE82EF9
:10695200FED7032EFCD7044A052A0150045C0250DC
:106962000558D8A0B7EF34F0B9EF34F054EF34F053
:106972001200000E056E000E046E1AEF35F0000EC6
:106982008A6E000E8C6E030E036E980EE82EFED7F2
:10699200032EFCD7000E8A6E000E8C6E030E036E61
:1069A200980EE82EFED7032EFCD7040E8A6E8F0EA9
:1069B2008C6E030E036E980EE82EFED7032EFCD7C4
:1069C200080E8A6E770E8C6E030E036E980EE82EFA
:1069D200FED7032EFCD7100E8A6E770E8C6E030E36
:1069E200036E980EE82EFED7032EFCD7200E8A6E79
:1069F2008F0E8C6E030E036E980EE82EFED7032EBA
:106A0200FCD7000E8A6E000E8C6E030E036E980E7B
:106A1200E82EFED7032EFCD7000E8A6E000E8C6E77
:106A2200030E036E980EE82EFED7032EFCD7044AFF
:106A3200052A0150045C02500558D8A023EF35F016
:106A420025EF35F0C0EF34F01200000E056E000E97
:106A5200046E86EF35F0000E8A6E000E8C6E030E09
:106A6200036E980EE82EFED7032EFCD7000E8A6E18
:106A7200000E8C6E030E036E980EE82EFED7032EC8
:106A8200FCD7040E8A6E070E8C6E030E036E980EF0
:106A9200E82EFED7032EFCD7080E8A6EDB0E8C6E14
:106AA200030E036E980EE82EFED7032EFCD7100EAF
:106AB2008A6EDB0E8C6E030E036E980EE82EFED7E6
:106AC200032EFCD7200E8A6EDB0E8C6E030E036E35
:106AD200980EE82EFED7032EFCD7400E8A6EE70EE4
:106AE2008C6E030E036E980EE82EFED7032EFCD793
:106AF200000E8A6E000E8C6E030E036E980EE82E48
:106B0200FED7032EFCD7044A052A0150045C02502A
:106B12000558D8A08FEF35F091EF35F02CEF35F016
:106B22001200000E056E000E046EF2EF35F0000E3C
:106B32008A6E000E8C6E030E036E980EE82EFED740
:106B4200032EFCD7000E8A6E000E8C6E030E036EAF
:106B5200980EE82EFED7032EFCD7000E8A6E000E8A
:106B62008C6E030E036E980EE82EFED7032EFCD712
:106B7200080E8A6E3F0E8C6E030E036E980EE82E80
:106B8200FED7032EFCD7100E8A6E3F0E8C6E030EBC
:106B9200036E980EE82EFED7032EFCD7000E8A6EE7
:106BA200000E8C6E030E036E980EE82EFED7032E97
:106BB200FCD7000E8A6E000E8C6E030E036E980ECA
:106BC200E82EFED7032EFCD7000E8A6E000E8C6EC6
:106BD200030E036E980EE82EFED7032EFCD7044A4E
:106BE200052A0150045C02500558D8A0FBEF35F08D
:106BF200FDEF35F098EF35F01200000E056E000E35
:106C0200046E5EEF36F0000E8A6E000E8C6E030E7E
:106C1200036E980EE82EFED7032EFCD7020E8A6E64
:106C22007F0E8C6E030E036E980EE82EFED7032E97
:106C3200FCD7040E8A6EB70E8C6E030E036E980E8E
:106C4200E82EFED7032EFCD7080E8A6EDF0E8C6E5E
:106C5200030E036E980EE82EFED7032EFCD7100EFD
:106C62008A6EEF0E8C6E030E036E980EE82EFED720
:106C7200032EFCD7200E8A6EB70E8C6E030E036EA7
:106C8200980EE82EFED7032EFCD7400E8A6EFB0E1E
:106C92008C6E030E036E980EE82EFED7032EFCD7E1
:106CA200000E8A6E000E8C6E030E036E980EE82E96
:106CB200FED7032EFCD7044A052A0150045C025079
:106CC2000558D8A067EF36F069EF36F004EF36F0DA
:106CD2001200000E056E000E046ECAEF36F0000EB2
:106CE2008A6E000E8C6E030E036E980EE82EFED78F
:106CF200032EFCD7000E8A6E000E8C6E030E036EFE
:106D0200980EE82EFED7032EFCD7040E8A6E830E51
:106D12008C6E030E036E980EE82EFED7032EFCD760
:106D2200080E8A6E7D0E8C6E030E036E980EE82E90
:106D3200FED7032EFCD7100E8A6E7D0E8C6E030ECC
:106D4200036E980EE82EFED7032EFCD7000E8A6E35
:106D5200000E8C6E030E036E980EE82EFED7032EE5
:106D6200FCD7000E8A6E000E8C6E030E036E980E18
:106D7200E82EFED7032EFCD7000E8A6E000E8C6E14
:106D8200030E036E980EE82EFED7032EFCD7044A9C
:106D9200052A0150045C02500558D8A0D3EF36F002
:106DA200D5EF36F070EF36F01200000E056E000ED1
:106DB200046E36EF37F0000E8A6E000E8C6E030EF4
:106DC200036E980EE82EFED7032EFCD7000E8A6EB5
:106DD200000E8C6E030E036E980EE82EFED7032E65
:106DE200FCD7000E8A6E000E8C6E030E036E980E98
:106DF200E82EFED7032EFCD7080E8A6E7D0E8C6E0F
:106E0200030E036E980EE82EFED7032EFCD7100E4B
:106E12008A6E7D0E8C6E030E036E980EE82EFED7E0
:106E2200032EFCD7200E8A6E830E8C6E030E036E29
:106E3200980EE82EFED7032EFCD7000E8A6E000EA7
:106E42008C6E030E036E980EE82EFED7032EFCD72F
:106E5200000E8A6E000E8C6E030E036E980EE82EE4
:106E6200FED7032EFCD7044A052A0150045C0250C7
:106E72000558D8A03FEF37F041EF37F0DCEF36F09E
:106E82001200000E056E000E046EA2EF37F0000E27
:106E92008A6E000E8C6E030E036E980EE82EFED7DD
:106EA200032EFCD7020E8A6E830E8C6E030E036EC7
:106EB200980EE82EFED7032EFCD7040E8A6E7D0EA6
:106EC2008C6E030E036E980EE82EFED7032EFCD7AF
:106ED200080E8A6E7D0E8C6E030E036E980EE82EDF
:106EE200FED7032EFCD7000E8A6E000E8C6E030EA8
:106EF200036E980EE82EFED7032EFCD7200E8A6E64
:106F02007D0E8C6E030E036E980EE82EFED7032EB6
:106F1200FCD7400E8A6E7D0E8C6E030E036E980EA9
:106F2200E82EFED7032EFCD7800E8A6E830E8C6E5F
:106F3200030E036E980EE82EFED7032EFCD7044AEA
:106F4200052A0150045C02500558D8A0ABEF37F077
:106F5200ADEF37F048EF37F01200000E056E000E6D
:106F6200046E0EEF38F0000E8A6E000E8C6E030E69
:106F7200036E980EE82EFED7032EFCD7020E8A6E01
:106F8200E70E8C6E030E036E980EE82EFED7032ECC
:106F9200FCD7040E8A6EDB0E8C6E030E036E980E07
:106FA200E82EFED7032EFCD7080E8A6EDB0E8C6EFF
:106FB200030E036E980EE82EFED7032EFCD7100E9A
:106FC2008A6EDB0E8C6E030E036E980EE82EFED7D1
:106FD200032EFCD7200E8A6E070E8C6E030E036EF4
:106FE200980EE82EFED7032EFCD7000E8A6E000EF6
:106FF2008C6E030E036E980EE82EFED7032EFCD77E
:10700200000E8A6E000E8C6E030E036E980EE82E32
:10701200FED7032EFCD7044A052A0150045C025015
:107022000558D8A017EF38F019EF38F0B4EF37F061
:107032001200000E056E000E046E7AEF38F0000E9C
:107042008A6E000E8C6E030E036E980EE82EFED72B
:10705200032EFCD7020E8A6E9F0E8C6E030E036EF9
:10706200980EE82EFED7032EFCD7040E8A6E650E0C
:107072008C6E030E036E980EE82EFED7032EFCD7FD
:10708200080E8A6E7F0E8C6E030E036E980EE82E2B
:10709200FED7032EFCD7100E8A6E7F0E8C6E030E67
:1070A200036E980EE82EFED7032EFCD7200E8A6EB2
:1070B200BF0E8C6E030E036E980EE82EFED7032EC3
:1070C200FCD7000E8A6E000E8C6E030E036E980EB5
:1070D200E82EFED7032EFCD7000E8A6E000E8C6EB1
:1070E200030E036E980EE82EFED7032EFCD7044A39
:1070F200052A0150045C02500558D8A083EF38F0ED
:1071020085EF38F020EF38F01200000E056E000E09
:10711200046EE6EF38F0000E8A6E000E8C6E030EDF
:10712200036E980EE82EFED7032EFCD7000E8A6E51
:10713200000E8C6E030E036E980EE82EFED7032E01
:10714200FCD7040E8A6EFB0E8C6E030E036E980E35
:10715200E82EFED7032EFCD7080E8A6EFD0E8C6E2B
:10716200030E036E980EE82EFED7032EFCD7100EE8
:107172008A6EFD0E8C6E030E036E980EE82EFED7FD
:10718200032EFCD7200E8A6E4D0E8C6E030E036EFC
:10719200980EE82EFED7032EFCD7400E8A6EF30E11
:1071A2008C6E030E036E980EE82EFED7032EFCD7CC
:1071B200000E8A6E000E8C6E030E036E980EE82E81
:1071C200FED7032EFCD7044A052A0150045C025064
:1071D2000558D8A0EFEF38F0F1EF38F08CEF38F027
:1071E2001200000E056E000E046E52EF39F0000E12
:1071F2008A6E000E8C6E030E036E980EE82EFED77A
:10720200032EFCD7000E8A6E000E8C6E030E036EE8
:10721200980EE82EFED7032EFCD7040E8A6E030EBC
:107222008C6E030E036E980EE82EFED7032EFCD74B
:10723200080E8A6EEF0E8C6E030E036E980EE82E09
:10724200FED7032EFCD7100E8A6EF70E8C6E030E3D
:10725200036E980EE82EFED7032EFCD7000E8A6E20
:10726200000E8C6E030E036E980EE82EFED7032ED0
:10727200FCD7000E8A6E000E8C6E030E036E980E03
:10728200E82EFED7032EFCD7000E8A6E000E8C6EFF
:10729200030E036E980EE82EFED7032EFCD7044A87
:1072A200052A0150045C02500558D8A05BEF39F062
:1072B2005DEF39F0F8EF38F01200000E056E000EA7
:1072C200046EBEEF39F0000E8A6E000E8C6E030E55
:1072D200036E980EE82EFED7032EFCD7000E8A6EA0
:1072E200000E8C6E030E036E980EE82EFED7032E50
:1072F200FCD7040E8A6E470E8C6E030E036E980E38
:10730200E82EFED7032EFCD7080E8A6E570E8C6E1F
:10731200030E036E980EE82EFED7032EFCD7100E36
:107322008A6E570E8C6E030E036E980EE82EFED7F1
:10733200032EFCD7200E8A6E170E8C6E030E036E80
:10734200980EE82EFED7032EFCD7000E8A6E000E92
:107352008C6E030E036E980EE82EFED7032EFCD71A
:10736200000E8A6E000E8C6E030E036E980EE82ECF
:10737200FED7032EFCD7044A052A0150045C0250B2
:107382000558D8A0C7EF39F0C9EF39F064EF39F0EA
:107392001200000E056E000E046E2AEF3AF0000E87
:1073A2008A6E000E8C6E030E036E980EE82EFED7C8
:1073B200032EFCD7020E8A6EBF0E8C6E030E036E76
:1073C200980EE82EFED7032EFCD7040E8A6ED10E3D
:1073D2008C6E030E036E980EE82EFED7032EFCD79A
:1073E200080E8A6EDF0E8C6E030E036E980EE82E68
:1073F200FED7032EFCD7100E8A6EDF0E8C6E030EA4
:10740200036E980EE82EFED7032EFCD7200E8A6E4E
:10741200D10E8C6E030E036E980EE82EFED7032E4D
:10742200FCD7400E8A6EBF0E8C6E030E036E980E52
:10743200E82EFED7032EFCD7000E8A6E000E8C6E4D
:10744200030E036E980EE82EFED7032EFCD7044AD5
:10745200052A0150045C02500558D8A033EF3AF0D7
:1074620035EF3AF0D0EF39F01200000E056E000E43
:10747200046E96EF3AF0000E8A6E000E8C6E030ECA
:10748200036E980EE82EFED7032EFCD7020E8A6EEC
:10749200DF0E8C6E030E036E980EE82EFED7032EBF
:1074A200FCD7040E8A6EB10E8C6E030E036E980E1C
:1074B200E82EFED7032EFCD7080E8A6EBF0E8C6E06
:1074C200030E036E980EE82EFED7032EFCD7100E85
:1074D2008A6EBF0E8C6E030E036E980EE82EFED7D8
:1074E200032EFCD7200E8A6EB10E8C6E030E036E35
:1074F200980EE82EFED7032EFCD7400E8A6EDF0EC2
:107502008C6E030E036E980EE82EFED7032EFCD768
:10751200000E8A6E000E8C6E030E036E980EE82E1D
:10752200FED7032EFCD7044A052A0150045C025000
:107532000558D8A09FEF3AF0A1EF3AF03CEF3AF0AD
:107542001200000E056E000E046E02EF3BF0000EFC
:107552008A6E000E8C6E030E036E980EE82EFED716
:10756200032EFCD7020E8A6EF70E8C6E030E036E8C
:10757200980EE82EFED7032EFCD7040E8A6E6F0EED
:107582008C6E030E036E980EE82EFED7032EFCD7E8
:10759200080E8A6E890E8C6E030E036E980EE82E0C
:1075A200FED7032EFCD7100E8A6E890E8C6E030E48
:1075B200036E980EE82EFED7032EFCD7200E8A6E9D
:1075C2006F0E8C6E030E036E980EE82EFED7032EFE
:1075D200FCD7400E8A6EF70E8C6E030E036E980E69
:1075E200E82EFED7032EFCD7000E8A6E000E8C6E9C
:1075F200030E036E980EE82EFED7032EFCD7044A24
:10760200052A0150045C02500558D8A00BEF3BF04C
:107612000DEF3BF0A8EF3AF01200000E056E000EDF
:10762200046E6EEF3BF0000E8A6E000E8C6E030E3F
:10763200036E980EE82EFED7032EFCD7000E8A6E3C
:10764200000E8C6E030E036E980EE82EFED7032EEC
:10765200FCD7040E8A6EEF0E8C6E030E036E980E2C
:10766200E82EFED7032EFCD7080E8A6E030E8C6E10
:10767200030E036E980EE82EFED7032EFCD7100ED3
:107682008A6EEF0E8C6E030E036E980EE82EFED7F6
:10769200032EFCD7000E8A6E000E8C6E030E036E54
:1076A200980EE82EFED7032EFCD7000E8A6E000E2F
:1076B2008C6E030E036E980EE82EFED7032EFCD7B7
:1076C200000E8A6E000E8C6E030E036E980EE82E6C
:1076D200FED7032EFCD7044A052A0150045C02504F
:1076E2000558D8A077EF3BF079EF3BF014EF3BF071
:1076F2001200000E056E000E046EDAEF3BF0000E73
:107702008A6E000E8C6E030E036E980EE82EFED764
:10771200032EFCD7020E8A6E870E8C6E030E036E4A
:10772200980EE82EFED7032EFCD7040E8A6E7F0E2B
:107732008C6E030E036E980EE82EFED7032EFCD736
:10774200080E8A6E7F0E8C6E030E036E980EE82E64
:10775200FED7032EFCD7100E8A6E7F0E8C6E030EA0
:10776200036E980EE82EFED7032EFCD7200E8A6EEB
:10777200870E8C6E030E036E980EE82EFED7032E34
:10778200FCD7000E8A6E000E8C6E030E036E980EEE
:10779200E82EFED7032EFCD7000E8A6E000E8C6EEA
:1077A200030E036E980EE82EFED7032EFCD7044A72
:1077B200052A0150045C02500558D8A0E3EF3BF0C3
:1077C200E5EF3BF080EF3BF01200000E056E000E7D
:1077D200046E46EF3CF0000E8A6E000E8C6E030EB5
:1077E200036E980EE82EFED7032EFCD7020E8A6E89
:1077F200C70E8C6E030E036E980EE82EFED7032E74
:10780200FCD7040E8A6EBF0E8C6E030E036E980EAA
:10781200E82EFED7032EFCD7080E8A6E7F0E8C6EE2
:10782200030E036E980EE82EFED7032EFCD7100E21
:107832008A6EBF0E8C6E030E036E980EE82EFED774
:10784200032EFCD7200E8A6EC70E8C6E030E036EBB
:10785200980EE82EFED7032EFCD7000E8A6E000E7D
:107862008C6E030E036E980EE82EFED7032EFCD705
:10787200000E8A6E000E8C6E030E036E980EE82EBA
:10788200FED7032EFCD7044A052A0150045C02509D
:107892000558D8A04FEF3CF051EF3CF0ECEF3BF035
:1078A2001200000E056E000E046EB2EF3CF0000EE8
:1078B2008A6E000E8C6E030E036E980EE82EFED7B3
:1078C200032EFCD7020E8A6E870E8C6E030E036E99
:1078D200980EE82EFED7032EFCD7040E8A6E7F0E7A
:1078E2008C6E030E036E980EE82EFED7032EFCD785
:1078F200080E8A6E8F0E8C6E030E036E980EE82EA3
:10790200FED7032EFCD7100E8A6E7F0E8C6E030EEE
:10791200036E980EE82EFED7032EFCD7200E8A6E39
:10792200870E8C6E030E036E980EE82EFED7032E82
:10793200FCD7000E8A6E000E8C6E030E036E980E3C
:10794200E82EFED7032EFCD7000E8A6E000E8C6E38
:10795200030E036E980EE82EFED7032EFCD7044AC0
:10796200052A0150045C02500558D8A0BBEF3CF038
:10797200BDEF3CF058EF3CF01200000E056E000E19
:10798200046E1EEF3DF0000E8A6E000E8C6E030E2A
:10799200036E980EE82EFED7032EFCD7020E8A6ED7
:1079A200770E8C6E030E036E980EE82EFED7032E12
:1079B200FCD7040E8A6EAF0E8C6E030E036E980E09
:1079C200E82EFED7032EFCD7080E8A6EDF0E8C6ED1
:1079D200030E036E980EE82EFED7032EFCD7100E70
:1079E2008A6EAF0E8C6E030E036E980EE82EFED7D3
:1079F200032EFCD7200E8A6E770E8C6E030E036E5A
:107A0200980EE82EFED7032EFCD7000E8A6E000ECB
:107A12008C6E030E036E980EE82EFED7032EFCD753
:107A2200000E8A6E000E8C6E030E036E980EE82E08
:107A3200FED7032EFCD7044A052A0150045C0250EB
:107A42000558D8A027EF3DF029EF3DF0C4EF3CF0F8
:107A52001200000E056E000E046E8AEF3DF0000E5D
:107A62008A6E000E8C6E030E036E980EE82EFED701
:107A7200032EFCD7000E8A6E000E8C6E030E036E70
:107A8200980EE82EFED7032EFCD7040E8A6E630EE4
:107A92008C6E030E036E980EE82EFED7032EFCD7D3
:107AA200080E8A6E6F0E8C6E030E036E980EE82E11
:107AB200FED7032EFCD7100E8A6E830E8C6E030E39
:107AC200036E980EE82EFED7032EFCD7000E8A6EA8
:107AD200000E8C6E030E036E980EE82EFED7032E58
:107AE200FCD7000E8A6E000E8C6E030E036E980E8B
:107AF200E82EFED7032EFCD7000E8A6E000E8C6E87
:107B0200030E036E980EE82EFED7032EFCD7044A0E
:107B1200052A0150045C02500558D8A093EF3DF0AD
:107B220095EF3DF030EF3DF01200000E056E000EB5
:107B3200046EF6EF3DF0000E8A6E000E8C6E030EA0
:107B4200036E980EE82EFED7032EFCD7000E8A6E27
:107B5200000E8C6E030E036E980EE82EFED7032ED7
:107B6200FCD7040E8A6EB70E8C6E030E036E980E4F
:107B7200E82EFED7032EFCD7080E8A6E570E8C6EA7
:107B8200030E036E980EE82EFED7032EFCD7100EBE
:107B92008A6E570E8C6E030E036E980EE82EFED779
:107BA200032EFCD7200E8A6E6F0E8C6E030E036EB0
:107BB200980EE82EFED7032EFCD7000E8A6E000E1A
:107BC2008C6E030E036E980EE82EFED7032EFCD7A2
:107BD200000E8A6E000E8C6E030E036E980EE82E57
:107BE200FED7032EFCD7044A052A0150045C02503A
:107BF2000558D8A0FFEF3DF001EF3EF09CEF3DF0BD
:107C02001200000E956E000E936E000E8C6E000E2A
:107C12008A6E000E026E640E016E36EC1FF0000ECC
:107C2200026E640E016EA2EC1FF0000E026E640E74
:107C3200016E0EEC20F0000E026E640E016E7AEC04
:107C420020F0000E026E640E016EE6EC20F0000ED3
:107C5200026E640E016E52EC21F0000E026E640E92
:107C6200016EBEEC21F0000E026E640E016E2AEC73
:107C720022F0000E026E640E016E96EC22F0000EEF
:107C8200026E640E016E02EC23F0000E026E640EB0
:107C9200016E6EEC23F0000E026E640E016EDAECE1
:107CA20023F0000E026E640E016E46EC24F0000E0C
:107CB200026E640E016EB2EC24F0000E026E640ECF
:107CC200016ED2EC2EF0000E026E640E016E1EECFE
:107CD20025F0000E026E640E016E8AEC25F0000E95
:107CE200026E640E016EF6EC25F0000E026E640E5A
:107CF200016E62EC26F0000E026E640E016ECEEC96
:107D020026F0000E026E640E016E3AEC27F0000EB1
:107D1200026E640E016EA6EC27F0000E026E640E77
:107D2200016E12EC28F0000E026E640E016E7EEC03
:107D320028F0000E026E640E016EEAEC28F0000ECE
:107D4200026E640E016E56EC29F0000E026E640E95
:107D5200016EC2EC29F0000E026E640E016EFEECA2
:107D62001AF0000E026E640E016E6AEC1BF0000E39
:107D7200026E640E016ED6EC1BF0000E026E640EF3
:107D8200016E42EC1CF0000E026E640E016EAEEC4F
:107D92001CF0000E026E640E016E1AEC1DF0000E55
:107DA200026E640E016E86EC1DF0000E026E640E11
:107DB200016EF2EC1DF0000E026E640E016E5EECBE
:107DC2001EF0000E026E640E016ECAEC1EF0000E72
:107DD200026E640E016E2EEC2AF0000E026E640E2C
:107DE200016E4AEC2CF0000E026E640E016EB6ECCF
:107DF2002CF0000E026E640E016E22EC2DF0000ECD
:107E0200026E640E016E8EEC2DF0000E026E640E98
:107E1200016EAAEC2FF0000E026E640E016E82EC6F
:107E220030F0000E026E640E016EEEEC30F0000EC9
:107E3200026E640E016E5AEC31F0000E026E640E98
:107E4200016EC6EC31F0000E026E640E016E32EC71
:107E520032F0000E026E640E016E9EEC32F0000EE5
:107E6200026E640E016E0AEC33F0000E026E640EB6
:107E7200016EE2EC33F0000E026E640E016E3EEC17
:107E82002FF0000E026E640E016EBAEC34F0000E9A
:107E9200026E640E016E26EC35F0000E026E640E68
:107EA200016EAEEC37F0000E026E640E016EF2EC63
:107EB20038F0000E026E640E016E5EEC39F0000EB8
:107EC200026E640E016E0EEC3BF0000E026E640E4A
:107ED200016E7AEC3BF0000E026E640E016EE6EC6F
:107EE2003BF0000E026E640E016E52EC3CF0000E8E
:107EF200026E640E016EBEEC3CF0000E026E640E69
:107F0200016E2AEC3DF0000E026E640E016E96ECDC
:107F12003DF0000E026E640E016E86EC38F0000E2B
:107F2200026E640E016E1AEC38F0000E026E640EE0
:107F3200016E42EC37F0000E026E640E016E6AECC6
:107F420036F0000E026E640E016ED6EC36F0000EB4
:107F5200026E640E016EA2EC3AF0000E026E640E26
:107F6200016E36EC3AF0000E026E640E016ECAEC3F
:107F720039F0000E026E640E016E16EC30F0000E47
:107F8200026E640E016EFAEC2DF0000E026E640EAB
:107F9200016E66EC2EF0000E026E640E016E92EC23
:107FA20035F0000E026E640E016EFEEC35F0000E2E
:107FB200026E640E016E4EEC34F0000E026E640E20
:107FC200016E76EC33F0000E026E640E016EDEEC92
:107FD2002BF0000E026E640E016E72EC2BF0000E9E
:107FE200026E640E016E9AEC2AF0000E026E640EAE
:0E7FF200016E06EC2BF00AEF3EF000EF00F0FF
:020000040020DA
:08000000FFFFFFFFFFFFFFFF00
:020000040030CA
:0E000000000C1F1EFF8181FF0FC00FE00F409C
:00000001FF
